:100000000C945D000C9485000C9485000C94850084
:100010000C9485000C9485000C9485000C9485004C
:100020000C9485000C9485000C9485000C9485003C
:100030000C9485000C9485000C9485000C9485002C
:100040000C94AD040C9485000C941D050C94F704DD
:100050000C9485000C9485000C9485000C9485000C
:100060000C9485000C94850000000008000201003B
:100070000003040700000000000000000000000072
:10008000250028002B0000000000240027002A0083
:10009000040404040404040402020202020203032E
:1000A0000303030301020408102040800102040836
:1000B00010200102040810204F0511241FBECFEFAD
:1000C000D8E0DEBFCDBF11E0A0E0B1E0E0E9F2E1B1
:1000D00002C005900D92A831B107D9F721E0A8E13F
:1000E000B1E001C01D92AE3FB207E1F710E0CDE5EF
:1000F000D0E004C02197FE010E94AF06CC35D107A5
:10010000C9F70E94A1050C9446090C94000090E0E8
:10011000FC01EC55FF4F2491FC01E057FF4F849107
:10012000882399F090E0880F991FFC01EA57FF4F50
:10013000A591B491FC01E458FF4F859194918FB73C
:10014000F894EC91E22BEC938FBF089590E0FC01C2
:10015000E859FF4F3491FC01EC55FF4F2491FC010D
:10016000E057FF4FE491EE2309F43BC0332339F10C
:10017000333091F038F43130A9F0323001F584B5E4
:100180008F7D12C0373091F03830A1F03430B9F49F
:10019000809180008F7D03C0809180008F77809355
:1001A00080000DC084B58F7784BD09C08091B000F8
:1001B0008F7703C08091B0008F7D8093B000F0E016
:1001C000EE0FFF1FE458FF4FA591B4918FB7F8943D
:1001D000EC91611103C020952E2301C02E2B2C938E
:1001E0008FBF08953FB7F89480911D0190911E0133
:1001F000A0911F01B091200126B5A89B05C02F3FFB
:1002000019F00196A11DB11D3FBFBA2FA92F982F3C
:100210008827820F911DA11DB11DBC01CD0142E0B7
:10022000660F771F881F991F4A95D1F70895CF92BF
:10023000DF92EF92FF920F931F93CF93DF936C01A6
:100240007A018B01C0E0D0E0CE15DF0589F0D8013E
:100250006D918D01D601ED91FC910190F081E02D21
:10026000C6010995892B11F47E0102C02196ECCFBD
:10027000C701DF91CF911F910F91FF90EF90DF9019
:10028000CF900895089580E090E00895FC01538D8B
:10029000448D252F30E0842F90E0821B930B541760
:1002A00010F0CF96089501970895FC01918D828DED
:1002B000981761F0828DDF01A80FB11D5D968C91BA
:1002C000928D9F5F9F73928F90E008958FEF9FEFC5
:1002D0000895FC01918D828D981731F0828DE80F81
:1002E000F11D858D90E008958FEF9FEF0895FC013B
:1002F000918D228D892F90E0805C9F4F821B910908
:100300008F739927089581E291E00E94770121E09F
:10031000892B09F420E0822F0895FC01848DDF01F0
:10032000A80FB11DA35ABF4F2C91848D90E0019668
:100330008F739927848FA689B7892C93A089B18957
:100340008C9180648C93938D848D981306C0028861
:10035000F389E02D80818F7D80830895EF92FF9255
:100360000F931F93CF93DF93EC0181E0888F9B8DD8
:100370008C8D981305C0E889F989808185FD24C09A
:10038000F62E0B8D10E00F5F1F4F0F731127E02E1D
:100390008C8DE8120CC00FB607FCFACFE889F989FA
:1003A000808185FFF5CFCE010E948D01F1CF8B8D2D
:1003B000FE01E80FF11DE35AFF4FF0820B8FEA892F
:1003C000FB898081806207C0EE89FF896083E889AC
:1003D000F98980818064808381E090E0DF91CF9112
:1003E0001F910F91FF90EF900895CF93DF93EC0151
:1003F000888D8823C9F0EA89FB89808185FD05C045
:10040000A889B9898C9186FD0FC00FB607FCF5CF7E
:10041000808185FFF2CFA889B9898C9185FFEDCFC6
:10042000CE010E948D01E7CFDF91CF91089580E04A
:1004300090E0892B29F00E94830181110C94000027
:1004400008950E944109DF92EF92FF920F931F934C
:10045000CF93DF938B01015011092AE0269FE00121
:10046000279FD00D11242A97C80FD91FF12CE12CFA
:100470008AE0D82E17FD27C08AE090E00E94140879
:10048000FC01DC018D2D1D928A95E9F78A819B8103
:10049000938382838C819D81AE81BF818483958388
:1004A000A683B7838881998191838083F086E186D2
:1004B0002A970115110511F4CF0105C0015011094A
:1004C000FE2EEF2ED7CFDF91CF911F910F91FF908E
:1004D000EF90DF9008953F924F925F926F927F92DC
:1004E0008F929F92AF92BF92CF92DF92EF92FF9244
:1004F0000F931F93CF93DF93CDB7DEB7CE52D1408A
:100500000FB6F894DEBF0FBECDBFE1E2F1E0A089E7
:10051000B18982E08C93A485B5851C92A685B785A8
:100520008FEC8C93108EA489B58986E08C93A28978
:10053000B3898C9180618C93A289B3898C918860F6
:100540008C93A289B3898C9180688C930288F389FB
:10055000E02D80818F7D8083CE010196C35DDE4FCB
:1005600099838883CD52D1408EE6C35DDE4FA8814A
:10057000B981CD52D1401D928A95E9F72FEF30E035
:100580003C832B83388F2F8B3CA72BA73EAB2DAB07
:100590002B963FAF2EAF2B976F963FAF2EAF6F9737
:1005A00085EC98E0A7969FAF8EAFA797A9963FAF2F
:1005B0002EAFA99780E090E0A0EAB0ECAD968CAFAA
:1005C0009DAFAEAFBFAFAD9789E190E09C878B87C1
:1005D00082E390E09E8B8D8B4BE450E058A34F8FCD
:1005E00084E690E09AA789A78DE790E09CAB8BAB5F
:1005F00066E970E07EAF6DAF8FEA90E029969FAF1D
:100600008EAF2997E8ECF0E06396FFAFEEAF63970B
:1006100001EE10E06D961FAF0EAF6D974E01B1EF7A
:100620008B1ABEEF9B0A8EE1382ED401832D1D92CA
:100630008A95E9F7412C512C90E8692E9FE3792E99
:10064000D4011E964D925D926D927C92519784ECEE
:1006500099E055969C938E93549757963C932E937E
:100660005697C12CD12C80E8E82E80ECF82E5896B5
:10067000CD92DD92ED92FC925B971B961C930E93AC
:100680001A975E01B1EFAB0EB11CD501832D1D92FF
:100690008A95E9F7D5011E964D925D926D927C92F6
:1006A000519703EC1AE055961C930E935497579666
:1006B0003C932E935697C12CD12C90E4E92E90ECCC
:1006C000F92E5896CD92DD92ED92FC925B970DE05B
:1006D00012E01B961C930E931A978E0101591F4F1F
:1006E00086E4D8011D928A95E9F7D8011E964D92AD
:1006F0005D926D927C92519782EC9BE055969C9313
:100700008E93549757963C932E935697412C512C89
:1007100080E8682E8EEB782E58964D925D926D9201
:100720007C925B9789E19FE05F969C938E935E97A6
:1007300091963C932E93909792964D925D926D92E6
:100740007C92959788EF91E199969C938E939897D8
:100750009B96FC93EE939A97F80144A655A666A63D
:1007600077A688E195E193AB82AB75AB64ABD69687
:100770004D925D926D927C92D99768EA76E1DD9612
:100780007C936E93DC97DF965C934E93DE97C15516
:10079000DF4F488259826A827B82CF5AD04049E338
:1007A00053E01B965C934E931A976E01B3EDCB0EFC
:1007B000D11CF601432D11924A95E9F74AE95AE115
:1007C000D6011B965C934E931A9780E090E0A0E0D0
:1007D000BFE3F60186879787A08BB18B40E65DE18A
:1007E000558B448B378B268B40E050E060E07FEBED
:1007F000408F518F628F738F7E01F5EBEF0EF11CEE
:10080000F70111923A94E9F742EC5FE1F70153875F
:10081000428786879787A08BB18B88EB94E2958B74
:10082000848B378B268B408E518E628E738E6BE05D
:1008300070E0CE0101960E9423022EEB622E21E091
:10084000722E2AE030E0F30135832483918780877C
:10085000978386838AE00E94870063E070E0C4018A
:100860000E94230229E030E0D3011F963C932E938F
:100870001E9753969C938E93529751969C938E936A
:10088000509789E00E94870063E070E0C5010E94F4
:10089000230226E030E0F301318F208F958F848F83
:1008A000938F828F86E00E94870067E070E0C80126
:1008B0000E9423022BE030E0D30193963C932E93C9
:1008C000929797969C938E93969795969C938E93DA
:1008D00094978BE00E94870063E070E0C6010E945D
:1008E000230223E030E0F30135A724A791AB80ABCE
:1008F00097A786A783E00E94870063E070E0C701A6
:100900000E94230225E030E0D301D7963C932E933A
:10091000D697DB969C938E93DA97D9969C938E9379
:10092000D89785E00E948700C25DDE4F0FB6F8942D
:10093000DEBF0FBECDBFDF91CF911F910F91FF9012
:10094000EF90DF90CF90BF90AF909F908F907F906F
:100950006F905F904F903F9008951F920F920FB647
:100960000F9211242F933F938F939F93AF93BF9335
:100970008091190190911A01A0911B01B0911C0165
:100980003091180123E0230F2D3720F40196A11D8B
:10099000B11D05C026E8230F0296A11DB11D2093AD
:1009A00018018093190190931A01A0931B01B09331
:1009B0001C0180911D0190911E01A0911F01B09119
:1009C00020010196A11DB11D80931D0190931E0170
:1009D000A0931F01B0932001BF91AF919F918F9180
:1009E0003F912F910F900FBE0F901F9018951F925F
:1009F0000F920FB60F9211242F933F934F935F9353
:100A00006F937F938F939F93AF93BF93EF93FF93D6
:100A100081E291E00E948D01FF91EF91BF91AF9132
:100A20009F918F917F916F915F914F913F912F9106
:100A30000F900FBE0F901F9018951F920F920FB638
:100A40000F9211242F938F939F93EF93FF93E09135
:100A50003101F09132018081E0913701F09138014C
:100A600082FD12C0908180913A018F5F8F73209137
:100A70003B01821751F0E0913A01F0E0EF5DFE4F4B
:100A8000958F80933A0101C08081FF91EF919F91F2
:100A90008F912F910F900FBE0F901F90189510926D
:100AA00024011092230188EE93E0A0E0B0E080934F
:100AB000250190932601A0932701B09328018AE095
:100AC00091E0909322018093210185EC90E0909336
:100AD0002E0180932D0184EC90E09093300180935F
:100AE0002F0180EC90E0909332018093310181ECF2
:100AF00090E0909334018093330182EC90E09093E6
:100B000036018093350186EC90E090933801809314
:100B1000370110923A0110923B0110923C01109261
:100B20003D01EEEBF1E080E090E0A0E8BFE38083E0
:100B30009183A283B3833A9621E0EA3FF207B9F7A3
:100B40000895789484B5826084BD84B5816084BD45
:100B500085B5826085BD85B5816085BD80916E005B
:100B6000816080936E00109281008091810082608C
:100B700080938100809181008160809381008091C9
:100B800080008160809380008091B10084608093B8
:100B9000B1008091B00081608093B00080917A00B4
:100BA000846080937A0080917A00826080937A00DA
:100BB00080917A00816080937A0080917A008068C9
:100BC00080937A001092C1000E946B02E12CF12CFC
:100BD000CEEBD1E0E885F985008511850115110579
:100BE00011F40E811F81F801808191818E159F057E
:100BF00071F462817381072E000C880B990B0E949F
:100C00005F07688379838A839B8319870887E885D0
:100C1000F9852481358146815781688179818A816E
:100C20009B810E94B6064B015C01688379838A83AD
:100C30009B8320E030E0A9010E94220787FF02C0C9
:100C400060E00BC020E030E04FE753E4C501B401A1
:100C50000E940F0818161CF461E08C815DC0C5016C
:100C6000B4010E9427074B015C016B010C811D81BF
:100C7000802F0E9487008114910409F449C0FFEF7E
:100C80008F16910409F446C0F801FF27E859FF4F79
:100C9000E491E330F9F048F4E130B9F0E230A1F545
:100CA00084B5806284BD88BC39C0E730E9F0E830A3
:100CB00019F1E43049F580918000806280938000D2
:100CC00090928B0080928A0029C084B5806884BD90
:100CD00087BC24C0809180008068809380009092BF
:100CE0008900809288001AC08091B000806880934B
:100CF000B0008092B30012C08091B00080628093F7
:100D0000B0008092B4000AC020E8C216D10414F4E6
:100D100060E001C061E0802F0E94A6002A9681E079
:100D2000CA3FD80709F056CF0E94F2004B015C0180
:100D30000E94F200DC01CB0188199909AA09BB09BC
:100D4000883E9340A105B10598F3FFEFEF1AFF0A23
:100D500021EEE2162EE2F2060CF038CF39CFEE0F7C
:100D6000FF1F0590F491E02D09945058BB27AA2746
:100D70000E94CD060C94D5070E94C70738F00E9448
:100D8000CE0720F039F49F3F19F426F40C94C407E1
:100D90000EF4E095E7FB0C94BE07E92F0E94E607EE
:100DA00058F3BA17620773078407950720F079F4A0
:100DB000A6F50C9408080EF4E0950B2EBA2FA02D82
:100DC0000B01B90190010C01CA01A0011124FF27F8
:100DD000591B99F0593F50F4503E68F11A16F040F3
:100DE000A22F232F342F4427585FF3CF46953795F2
:100DF0002795A795F0405395C9F77EF41F16BA0BB7
:100E0000620B730B840BBAF09150A1F0FF0FBB1F64
:100E1000661F771F881FC2F70EC0BA0F621F731FAD
:100E2000841F48F4879577956795B795F7959E3F0A
:100E300008F0B0CF9395880F08F09927EE0F97959B
:100E4000879508950E949A0708F481E008950E940A
:100E50002E076894B1110C94090808950E94EE07BA
:100E600088F09F5798F0B92F9927B751B0F0E1F06B
:100E7000660F771F881F991F1AF0BA95C9F714C01B
:100E8000B13091F00E940808B1E008950C94080870
:100E9000672F782F8827B85F39F0B93FCCF3869554
:100EA00077956795B395D9F73EF4909580957095B1
:100EB00061957F4F8F4F9F4F0895E89409C097FB2E
:100EC0003EF490958095709561957F4F8F4F9F4F21
:100ED0009923A9F0F92F96E9BB279395F695879565
:100EE00077956795B795F111F8CFFAF4BB0F11F428
:100EF00060FF1BC06F5F7F4F8F4F9F4F16C08823CF
:100F000011F096E911C0772321F09EE8872F762F04
:100F100005C0662371F096E8862F70E060E02AF045
:100F20009A95660F771F881FDAF7880F9695879531
:100F300097F90895990F0008550FAA0BE0E8FEEF06
:100F400016161706E807F907C0F012161306E4078D
:100F5000F50798F0621B730B840B950B39F40A2686
:100F600061F0232B242B252B21F408950A2609F464
:100F7000A140A6958FEF811D811D089597F99F6768
:100F800080E870E060E008959FEF80EC0895002411
:100F90000A941616170618060906089500240A94DE
:100FA00012161306140605060895092E0394000C64
:100FB00011F4882352F0BB0F40F4BF2B11F460FFF3
:100FC00004C06F5F7F4F8F4F9F4F089557FD90581C
:100FD000440F551F59F05F3F71F04795880F97FBFD
:100FE000991F61F09F3F79F08795089512161306B7
:100FF0001406551FF2CF4695F1DF08C016161706E6
:101000001806991FF1CF869571056105089408951A
:10101000E894BB2766277727CB0197F908950E94AC
:101020009A0708F48FEF0895CF93DF9382309105EC
:1010300010F482E090E0E091FC01F091FD0120E0ED
:1010400030E0C0E0D0E0309711F140815181481785
:101050005907C0F04817590761F48281938120979E
:1010600019F09B838A832BC09093FD018093FC0130
:1010700026C02115310519F04217530718F49A01BB
:10108000BE01DF01EF010280F381E02DDCCF2115ED
:10109000310509F1281B390B2430310590F41296E3
:1010A0008D919C9113976115710521F0FB0193833C
:1010B000828304C09093FD018093FC01FD01329670
:1010C00044C0FD01E20FF31F819391932250310937
:1010D0002D933C933AC02091FA013091FB01232BD0
:1010E00041F420910201309103013093FB012093E0
:1010F000FA0120910001309101012115310541F4DF
:101100002DB73EB74091040150910501241B350BCA
:10111000E091FA01F091FB01E217F307A0F42E1B16
:101120003F0B2817390778F0AC014E5F5F4F24174B
:10113000350748F04E0F5F1F5093FB014093FA01B3
:101140008193919302C0E0E0F0E0CF01DF91CF9175
:1011500008950F931F93CF93DF93009709F48CC0EA
:10116000FC013297138212820091FC011091FD0163
:101170000115110581F420813181820F931F209187
:10118000FA013091FB012817390779F5F093FB013B
:10119000E093FA0171C0D80140E050E0AE17BF07FC
:1011A00050F412962D913C911397AD012115310504
:1011B00009F1D901F3CF9D01DA01338322836081E4
:1011C0007181860F971F8217930769F4EC012881BC
:1011D0003981260F371F2E5F3F4F318320838A814D
:1011E0009B8193838283452B29F4F093FD01E09347
:1011F000FC0142C01396FC93EE931297ED014991C6
:1012000059919E01240F351FE217F30771F4808175
:101210009181840F951F029611969C938E938281E3
:10122000938113969C938E931297E0E0F0E0D8019F
:1012300012968D919C911397009719F0F8018C01EB
:10124000F6CF8D919C9198012E5F3F4F820F931F97
:101250002091FA013091FB012817390769F4309782
:1012600029F41092FD011092FC0102C01382128237
:101270001093FB010093FA01DF91CF911F910F9121
:10128000089581E090E0F8940C944609F894FFCF1B
:101290000000FE01200000000000AE011701460121
:0812A000F50177015501690118
:00000001FF
